:100000000C94FF010C941C020C941C020C941C0216
:100010000C941C020C941C020C941C020C941C02E8
:100020000C941C020C941C020C9432230C94052496
:100030000C94BD1D0C941C020C941C020C941C020C
:100040000C941C020C941C020C941C020C941C02B8
:100050000C941C020C94551E0C941C020C941C0253
:100060000C941C020C941C020C941C020C941C0298
:100070000C941C020C941C020C941C020C941C0288
:100080000C941C020C941C020C941C020C941C0278
:100090000C941C020C941C020C941C020C941C0268
:1000A0000C941C020C941C020C941C020052015271
:1000B00002520352045205520652407E417E3C00D9
:1000C0003D003E00000000003F00400041004200B3
:1000D0004300000000000052015202520352045239
:1000E000055206523A003B003C003D003E00000035
:1000F00000003F00400041004200430000000000BB
:1001000000520152025203520452055206523A0062
:100110003B003C003D003E00000000003F0040006E
:100120004100420043000000000000520152025210
:1001300003520452055206523A003B003C003D0077
:100140003E00000000003F0040004100420043002C
:1001500000000000005201520252035204520552A4
:1001600006523A003B003C003D003E00000000000B
:100170003F004000410042004300000000000052E8
:100180000152025203520452055206523A003B00F9
:100190003C003D003E00000000003F0040004100E8
:1001A000420043000000000000520152025203527C
:1001B0000452055206523A003B003C003D003E000E
:1001C000000000003F0040004100420043000000EA
:1001D000000000000000000000002A2B28000000A2
:1001E00000000000000000000000000000290000E6
:1001F00000002C1E3420212224342627252E362DC3
:100200003738271E1F202122232425263333362E5C
:1002100037381F0405060708090A0B0C0D0E0F10CE
:100220001112131415161718191A1B1C1D2F313013
:10023000232D350405060708090A0B0C0D0E0F10B7
:100240001112131415161718191A1B1C1D2F3130F3
:10025000354C00000000000000000000000000001D
:10026000000000000000000000000000000000008E
:100270000000000000007E0F00D4FFFFFFC7000059
:1002800000780E0341006C00660075006500720086
:100290000000180359006F007500540061007400DD
:1002A00065006B0061007700610000000403090431
:1002B00009025B00030100A0FA0904000001030128
:1002C00001000921110100012244000705810308F2
:1002D00000010904010002030000000921110100CE
:1002E00001222200070582032000010705030320E5
:1002F00000010904020001030000000921110100AE
:1003000001227B0007058403200001120100020086
:10031000000008F9864C430001010200010660FF5D
:100320000961A1010962150026FF00952075088169
:10033000020963150026FF00952075089102C0058B
:10034000010902A10185020901A10005091901297C
:10035000081500250195087501810205010930097C
:10036000311581257F95027508810609381581258B
:100370007F950175088106050C0A38021581257FD5
:10038000950175088106C0C005010980A10185039A
:1003900019012AB700150126B700950175108100D3
:1003A000C0050C0901A101850419012AA00215014B
:1003B00026A002950175108100C005010906A10162
:1003C000050719E029E71500250195087501810247
:1003D0009501750881010507190029FF150026FF01
:1003E00000950675088100050819012905150025E5
:1003F00001950575019102950175039101C01124C4
:100400001FBECFEFDAE0DEBFCDBF11E0A0E0B1E06C
:10041000E8E2F0E502C005900D92AE3AB107D9F7D7
:1004200022E0AEEAB1E001C01D92AA36B207E1F7C0
:100430000E94C4120C94AD270C940000A0E0B0E020
:10044000E4E2F2E00C94DB258C01EB018091C00129
:100450000E9447049091B001911151C0E2E2F1E095
:1004600049E251E07F0161E070E0D7012D917D010B
:10047000A22FA295AF70AE5DB0E09C912F706B0182
:1004800002C0CC0CDD1C2A95E2F7960120952923A9
:100490002C934E155F0549F75D9A289A90910601B5
:1004A000992369F18730C0F061E070E02191A22FBB
:1004B000A295AF70AE5DB0E09C912F707B0102C041
:1004C000EE0CFF1C2A95E2F79701209529232C9327
:1004D0004E175F0759F713C0E82FF0E0EE5DFE4FAF
:1004E0009081E92FE295EF70EE5DF0E020819F7042
:1004F00001C0660F9A95EAF7922F962B90830034ED
:100500006EE7160791F181E001347EE7170709F0E5
:1005100053C08D81882309F44EC08091B00191E0D1
:10052000A2E2B1E089278093B001882309F466C074
:1005300049E251E061E070E08D91E82FE295EF70C3
:10054000EE5DF0E020818F707B0102C0EE0CFF1C9D
:100550008A95E2F7C701822B80834A175B0761F710
:10056000559A209A5D98289826C09D81992319F163
:100570009091060121E0A2E2B1E09227909306015A
:1005800091111FC029E231E061E070E08D91E82F08
:10059000E295EF70EE5DF0E040818F70EB0102C0FC
:1005A000CC0FDD1F8A95E2F7CE01809584238083EE
:1005B0002A173B0759F780E0CDB7DEB7E8E00C9487
:1005C000F72590E041E050E02D91E22FE295EF70A9
:1005D000EE5DF0E02F706A0102C0CC0CDD1C2A95A4
:1005E000E2F796013081891306C0232B20839F5F99
:1005F000973051F7E0CF20952323F8CF29E231E05F
:1006000061E070E08D91E82FE295EF70EE5DF0E033
:1006100040818F70EB0102C0CC0FDD1F8A95E2F79D
:10062000CE018095842380832A173B0759F75D9A72
:10063000289AC1CF8730B8F46330A8F4473098F4D3
:10064000E42FF0E097E0699FE00DF11D112495E1A2
:10065000899FE00DF11D1124EE0FFF1FE455FF4FA0
:1006600085919491089581E090E0089581E0089546
:100670000E943603089581E008950E941E020895A5
:1006800008950E9440030895A6E0B0E0EAE4F3E094
:100690000C94E02549835A839E833091B601898169
:1006A0009A8131111AC03E81332399F0222389F0B7
:1006B0000E94F308182F682F89819A810E94CF0821
:1006C00069817A81812F0E94DE0F2696E3E00C94E7
:1006D000FC250E94E108182FF3CF0E94F3086981DE
:1006E0007A81F1CFFC01262F408151816281738193
:1006F000848195810E9444030895CF93DF93D82F7E
:10070000C92F61E00E9472036D2F7C2F0E94380375
:10071000DF91CF910895CF93DF93D82FC92F60E059
:100720000E9472036D2F7C2F0E944103DF91CF91B5
:10073000089591E001C0990F8A95EAF7892F0E94E8
:1007400010080895CF93C82F81E00C2E01C0880FA8
:100750000A94EAF70E94420D8C2F0E949903CF91D0
:10076000089581E008950E94B1030895CF93C82FA2
:100770000E94C3078C2F0E94B3032FEF84E39CE0F9
:10078000215080409040E1F700C00000CF910895D3
:1007900081E00E94B6030E94791E089580E00E94C5
:1007A000B6030E948A1E08950F931F93CF93DF9381
:1007B0008C0161E00E947203EC01B8010E948C1A66
:1007C000882309F449C0B801CE010E943D03882363
:1007D00009F442C0B801CE010E949A198823E1F1C0
:1007E000B801CE010E94BF148823B1F1B801CE0137
:1007F0000E949414882381F1B801CE010E94DB1974
:10080000882351F1B801CE010E94E410882321F120
:10081000F8018581882381F0CA35FCE7DF0739F1CB
:1008200078F4C130ECE7DE07F9F0C330FCE7DF070E
:10083000C9F0C115DC4771F0C8010E943B030DC02F
:10084000CB35ECE7DE07B1F0CC35DC47A9F70E94E9
:10085000130DF2CF0E94C80380E0DF91CF911F916A
:100860000F9108950E94250D0E94CE03F5CF0E949E
:100870001D0DE2CF0E94210DDFCF0E949A1D0E9424
:100880006F0408950E9473040E949F1D0895982F7D
:1008900082958F70882311F0982F84E0292F269558
:1008A0002695222311F08E5F922F969591118F5FDE
:1008B000089581E008950895CF93DF93D82F0E9483
:1008C0005904C82F882319F08D2F0E945B048C2FA8
:1008D000DF91CF91089508950E945C04089580E00F
:1008E0000E946C0408950E94E21B0E946C0408950B
:1008F000CF930E94E21BC82F8091B1018C1779F031
:10090000C093B1010E94291E6093B2017093B3019C
:100910008093B4019093B5018C2F0E946C04CF9109
:100920000895ADE0B0E0E7E9F4E00C94E1254887F4
:1009300059876A877B878C879D8791110E94500C0D
:100940001F8286E0FE013896DE01119601900D921D
:100950008A95E1F78D8181110DC029813A814B8102
:100960005C816D817E818F810E94960B2D96E2E0E5
:100970000C94FD25CE0101960E947D038111EDCFDF
:10098000F5CFFC018481813021F4808191810E9426
:100990001C090895662329F00E942D160E94EE1668
:1009A00008950E947616FACFCF93C82F882399F026
:1009B0008CEF8C0F813A88F48C2F0E94691C88235D
:1009C00029F08C2F0E94AE1C0E94C10C8C2F0E941B
:1009D000A61C0E94C10CCF91089580E28C0F883034
:1009E00048F4C77081E001C0880FCA95EAF70E94F9
:1009F000310CEFCF8BE58C0F833038F42C2F245241
:100A0000330BC9010E94091CE6CFE8E5EC0FEB317E
:100A100050F4F0E0EE0FFF1FE75DFE4F8081918103
:100A20000E942F1CD8CF83E38C0F8331A0F661E0A6
:100A30008C2F0E94CA04CFCF882381F19CEF980F9E
:100A4000913A28F40E94AE1C0E94C10C089590E2D5
:100A5000980F983050F4877091E001C0990F8A95F3
:100A6000EAF7892F0E94370CEFCF9BE5980F933060
:100A700028F480E090E00E94091C089598E5980F02
:100A80009B3128F480E090E00E942F1C089593E3AE
:100A9000980F933118F460E00E94CA0408951F93E0
:100AA000CF93DF93182FEB010E94D404209739F4E1
:100AB000812F0E941C05DF91CF911F9108958FE92E
:100AC0009FE00197F1F700C000002197EFCF60E0B1
:100AD00070E0893311F460E570E00E944F050895DD
:100AE000882321F00E94310C0E94C10C08958823B4
:100AF00021F00E94370C0E94C10C0895A0E0B0E0E4
:100B0000E4E8F5E00C94DB256C01D62FC72FFC013F
:100B10001581068102950F700E94260CE82E88230D
:100B2000F9F0E12E1123E1F08C2F807F803461F009
:100B300080E28D0F8830F0F08C2F807E803221F49F
:100B4000D230C0F00023B1F080914E0282FF12C07B
:100B500082E00E94E60C0E94260C91E0E82EE92635
:100B6000EC2FE295EF70C03CB0F5F0E0E155F84DA8
:100B70000C94C425E12CF4CF0C2F0F70C03110F071
:100B80000295007F112399F0002359F080E28D0F28
:100B9000883010F0D11107C0802F0E94310C0E94C4
:100BA000C10C8D2F51C0802F0E94420CF8CF8D2F89
:100BB0000E941C05002379F080E28D0F883010F030
:100BC000D11104C0802F0E94370C03C0802F0E94D7
:100BD000480C0E94C10CEE2089F00E94220C80FD7E
:100BE0000DC0F60115820E941C0C0E943D08C60132
:100BF0000E948A070E941C0C0E944908CDB7DEB7EC
:100C0000E8E00C94F725FC2FFF70FF2EC07FC03268
:100C100019F0F29480EFF822DD2341F0D130D1F1C8
:100C2000112309F444C00023F1F0BBCF80914E02A0
:100C300082FD15C0112359F0FF2029F08F2D0E944D
:100C4000310C0E94C10C80E00E94D404C4CF80E02B
:100C50000E941C05FF2009F4BECF8F2DB4CF1123B5
:100C600069F0011104C08F2D0E947005B4CF0130CE
:100C700009F0B1CF8F2D0E94680CADCF0111ABCF21
:100C80008F2D0E9477058F2D0E94740C8F2D0E944E
:100C9000570CA1CF112321F0063008F09CCFE3CFF1
:100CA000053008F098CF8F2D0E94770594CF002350
:100CB000D1F3D93349F42FEF87EE93E021508040F0
:100CC0009040E1F700C000008D2F0E941C0583CFEB
:100CD0008C2F869586958370882369F0813009F082
:100CE0007ACF8D2F9C2F9370111102C080E090E07D
:100CF0000E942F1C70CF8D2F9C2F9370111102C05A
:100D000080E090E00E94091C66CF612F8D2F0E9429
:100D1000CA0461CF8C2F8370811134C0111124C09B
:100D20004D2F429546954770440F440F8D2F8F707D
:100D3000042E01C0880F0A94EAF7D071DD2341F038
:100D40002FE030E001C0220F4A95EAF7D22FD0956C
:100D5000C695C695C3708D2BC23071F0C33079F043
:100D6000C13039F00E9419080E94E21B0E946C04F5
:100D700032CF0E941308F8CF0E941F08F5CF0E94BF
:100D80001008F2CF112339F1C0FFEECF4D2F42955D
:100D900046954770440F440F8D2F8F70042E01C06D
:100DA000880F0A94EAF7D071DD2341F02FE030E09C
:100DB00001C0220F4A95EAF7D22FD095C695C69565
:100DC000C3708D2BC23069F0C33071F0C13031F087
:100DD0000E946B08C9CF823038F2D8CF0E946508D4
:100DE000C3CF0E947108C0CF0E942B08BDCFCF7027
:100DF000112339F08C2F0E943D088D2F0E94700521
:100E0000B3CF8D2F0E9477058C2F0E944908ACCF5D
:100E1000D23F31F170F4D03FB9F0D13FB1F111239D
:100E200009F44EC0002309F448C08D2F0E94D40459
:100E30009BCFD33FE1F0D43F21F11111F3CF01114A
:100E40004DC08C2F8F71E1CF112341F0053008F098
:100E50008BCF8C2F8F710E94590886CF0530F7CF2A
:100E60008C2F8F711111D1CF0E943D087DCF11239E
:100E700029F08C2F8F710E94340876CF0E943008A1
:100E800073CF80914E0282FD06C08C2F8F7111238B
:100E900009F4BBCFE9CF112331F063E08C2F8F71C0
:100EA0000E94C80C61CF81E00E94E60C023008F479
:100EB0005BCF82E00E94E60C57CF8C2F8F71D4CF8E
:100EC000002309F4BECFD93349F4EFEFF7EE23E066
:100ED000E150F0402040E1F700C000008D2F0E945B
:100EE0001C0542CF0F931F93CF93DF93EC016881D2
:100EF00079818D810E9429098C010E9477080E94C6
:100F00000F08B801CE010E947E05DF91CF911F919D
:100F10000F910895CF93DF93EC018C81882399F092
:100F2000CE010E94D403811111C00E94260C882397
:100F300051F08D81882339F080914E0282FF03C0E9
:100F400082E00E94E60CDF91CF910895CE010E94CD
:100F50007207CE010E948B03F6CF80E090E00E94E2
:100F6000091C80E090E00E942F1C0E94500C0E94FF
:100F7000C10C0E940B170E94EE1608950E94B61C29
:100F80000E94AD0708950E943F0C0E94BE0708957D
:100F9000282F92959F70963091F060F4925F9F7029
:100FA000923030F481E0203F79F030F4283E30F088
:100FB00080E008959A5FF3CF243FD1F7089581E050
:100FC000283EE0F3213FF9CF0895FC018481882376
:100FD00039F0808191810E941C090E94C807089500
:100FE00080E00895A6E0B0E0E8EFF7E00C94E1259A
:100FF0002696E2E00C94FD25A7E0B0E0E2E0F8E000
:101000000C94E1252796E2E00C94FD2508950E94BA
:10101000060808950E9407088093C1010895089565
:101020000E940A0808959091C101892B0E940A0824
:1010300008959091C10189230E940A080895909112
:10104000C10189270E940A0808950E940608089590
:101050000E94250808950E9428088093C0010895E1
:1010600080E00E942B08089591E001C0990F8A95B5
:10107000EAF7892F0E942B08089521E030E001C093
:10108000220F8A95EAF78091C001822B0E942B08DB
:10109000089521E030E0A90102C0440F551F8A9550
:1010A000E2F7CA0180959091C00189230E942B0824
:1010B000089521E030E001C0220F8A95EAF780917F
:1010C000C00182270E942B0808959091C001892BAE
:1010D0000E942B0808959091C00189230E942B083B
:1010E00008959091C00189270E942B0808950895C2
:1010F0009B01677091E001C0990F6A95EAF763E080
:10110000369527956A95E1F7B901660F771F260F87
:10111000371FFA01E20FF31F40E050E0682F70E044
:101120008191DF0111979B01042E02C0369527950E
:101130000A94E2F7217021952827292328272C9348
:101140004F5F5F4F4330510559F708959C01A82F19
:10115000A77083E0369527958A95E1F7C901880F36
:10116000991F820F931FFB01E80FF91F40E050E029
:1011700080E0219130E00A2E02C0369527950A942E
:10118000E2F721703327042E01C0220F0A94EAF7F8
:10119000822B4F5F5F4F4330510559F70895282F39
:1011A000862F933068F4273058F4622F70E027E0E0
:1011B000929F600D711D112447EB51E00E94780849
:1011C0000895292F933068F4873058F490E067EB46
:1011D00071E037E0239F800D911D11240E94A60825
:1011E000089580E00895A0E0B0E0E9EFF8E00C9405
:1011F000DC257C010091C0018091C101082BC6E073
:10120000D0E010E0C8010C2E02C0959587950A9495
:10121000E2F780FD09C02197A8F7D12C8D2DCDB71D
:10122000DEB7E7E00C94F825DC2EB7018C2F0E9486
:10123000EA0F019781F3F2CFCF93DF93D82FC92F15
:101240000E94F3086D2F7C2F0E94EA0FDF91CF914F
:1012500008951F93CF93DF93162FD72F9091B60148
:10126000992341F0862F972F0E941C09DF91CF917F
:101270001F910895882381F0862F972F0E94F308ED
:10128000C82F682F812F9D2F0E94CF08612F7D2F9F
:101290008C2F0E94EA0FEACF862F972F0E94E10839
:1012A000C82FF4CFE1E0F0E0DF0102C0AA0FBB1FBE
:1012B0006A95E2F7BD01DF0102C0AA0FBB1F4A9584
:1012C000E2F76A2B01C0EE0F2A95EAF7962F9823D2
:1012D000961302C08E2B0895E0958E230895242F37
:1012E000462F682F8091C0010E9452090E942B084E
:1012F00008950F931F93CF93E091C201C7E08091AF
:10130000C3018E1304C0CF911F910F9108950E2F2A
:1013100010E0CE9FF0011124EC53FE4F208131816B
:10132000428153816481758186810E94FC07F801A6
:101330003196E770E4CF2091FC013091FD0140919E
:10134000FE015091FF0160910002709101028091B5
:1013500002020E94FC07089580910202803178F415
:1013600080910102882359F0E091C2012091C301CC
:101370003091FD014091FC0157E02E1301C008950A
:101380006E2F70E05E9FF0011124DF01AC53BE4F61
:1013900014968C911497882361F111968C91119772
:1013A000831327C08C91841324C015968C911597B4
:1013B00081111FC012968D919C91A091FE01B09158
:1013C000FF018A1B9B0B883C910598F480910202D7
:1013D0008F70806180930202E653FE4F80818F7090
:1013E000806180838CEF91E00E948A070E947909D6
:1013F0000895FB013196E770C0CFE091C201909152
:10140000C30127E0E91302C080E00895AE2FB0E0E9
:101410002E9FF0011124EC53FE4F3181361306C08C
:101420003081381303C03581341304C0FD01319677
:10143000E770E8CF81E008958F929F92AF92BF92BC
:10144000DF92EF92FF920F931F93CF93DF93CDB76D
:10145000DEB72D970FB6F894DEBF0FBECDBF8C015F
:1014600086E0F801DE01189601900D928A95E1F769
:10147000F801E080F580A280B38084819CEF892E02
:1014800091E0992E9091000291111BC0882309F4DC
:10149000FCC0FF2009F43DC1C8010E94E507882374
:1014A00009F437C187E0F801D40101900D928A95C3
:1014B000E1F7C4010E94C1040E94AC090E949B098B
:1014C000E4C0D09001022091FE013091FF01A501FE
:1014D000421B530BDD2009F4DBC0483C510508F0EA
:1014E000A6C0882309F4D1C09091FD01918080911C
:1014F0000202803108F06BC0991228C09091FC0163
:101500009E1124C0F1105DC08F7080618093020233
:101510000E949B098CEF91E00E948A078091020251
:10152000F8018683F12C8F2D2D960FB6F894DEBF2F
:101530000FBECDBFDF91CF911F910F91FF90EF9024
:10154000DF90BF90AF909F908F900895F11039C0B9
:1015500040E0692D8E2D0E94FD0940E0692D8E2D01
:101560000E94FD09F82E8111DDCF888599850E94A2
:101570001C09292F22952F70903450F49F7022302F
:1015800080F0992399F0F8019681903178F4CBCFCF
:101590002A5F2F70223078F0C8010E948A07FD2C44
:1015A000C2CF992319F0882309F4BDCF805E88301B
:1015B00008F4B9CFF1CF803F08F4B5CF815F823016
:1015C000F7CF80910202816080930202ABCF991223
:1015D00007C09091FC019E1103C0FF2009F479C05F
:1015E000C8010E94E507882309F493C0FF2009F48D
:1015F00090C080910202803288F02091FC013091ED
:10160000FD013A832983BC82AB82909100029D83C5
:101610001E828F83CE0101960E948A0787E0F8011F
:10162000ACEFB1E001900D928A95E1F745CF909132
:1016300002029031A0F4488559856A857B858C85A6
:101640009D850E94F2078CEF91E00E948A0787E057
:10165000F40111928A95E9F70E949B0963CF8823D0
:10166000A1F02091FD0181812813BACF8091FC0166
:101670008E11B6CFF110B4CF9683C8010E948A07AD
:1016800087E0F40111928A95E9F7FF24F3944BCF98
:10169000483C510508F041C08823B9F3FF20C9F147
:1016A0009091FD01818198132AC08091FC018E11D7
:1016B00026C08091020280FD19C08031B8F0868377
:1016C000807F803F39F08681982F907F905F8F7068
:1016D000892B8683C8010E948A0787E0F801ACEF56
:1016E000B1E001900D928A95E1F7E8CE87E0F8012C
:1016F000ACEFB1E001900D928A95E1F7C6CFC80139
:101700000E94E50781118ACF809102028160809357
:101710000202C8010E948A07B8CF488559856A85A8
:101720007B858C859D850E94F20791CFAEE0B0E06D
:10173000ECE9FBE00C94E025288739874A875B8732
:101740006C877D878E87CE0108960E941C0A8823AD
:10175000B1F06C85662341F0288539854A855B8523
:101760007D858E850E94FC0717E08091C2019091D3
:10177000C30189133EC02E96E3E00C94FC2587E05C
:10178000FE013896DE01119601900D928A95E1F7DF
:101790002091C3014091C2018C85882329F330E058
:1017A000C90101968770992750E08417950799F031
:1017B00097E0929FD001939FB00D1124AC53BE4F80
:1017C000FE01319601900D929A95E1F78093C30145
:1017D0000E947909C9CF0E94C3071092C3011092D9
:1017E000C20187E0ECEFF1E0DF011D928A95E9F795
:1017F000BBCF189FC00111248C539E4F0E941C0A1E
:10180000882309F4B8CFE091C2011E9FF001112492
:10181000EC53FE4F20813181428153816481758177
:1018200086810E94FC078091C20190E0019687703A
:1018300099278093C20199CF80910B028695869556
:101840008695089580910B028770089590910B0200
:10185000977081E0911101C080E008958091170296
:10186000089590911702982B909317020895982F3E
:101870009095809117028923809317020895109202
:101880001702089590911602982B909316020895CE
:10189000982F9095809116028923809316020895BF
:1018A00010921602089508950E94530C0895909185
:1018B0000C02292F2823222331F08095892380933D
:1018C0000C020E94540C089508950E94640C08951F
:1018D00090910D02292F2823281729F0982B9093F7
:1018E0000D020E94650C089590910D02292F282366
:1018F000222331F08095892380930D020E94650C8C
:10190000089580910D02882329F010920D0280E045
:101910000E94650C08950F931F93CF93DF9300915E
:10192000070110910801C091170280911602C82B7F
:10193000D0910D02DD2331F00E94551C81110E94CF
:10194000810CCD2BF801C083C0910701D091080113
:1019500048E050E063E072E0CE010E944727892B07
:1019600059F088E0FE01A3E0B2E001900D928A9563
:10197000E1F7CE010E94EF1BDF91CF911F910F91F4
:1019800008950E948B0C089508950E94C40C089538
:1019900090914E0292FF11C098E0899F900111240E
:1019A000622B60930B020E943D0880910B0286958A
:1019B000869586950E94C50C08950E943D0808955D
:1019C00010920B0280E00E94C50C089590910B02CA
:1019D0008095892380930B02282F277021110DC039
:1019E000891759F090914E0292FF07C0869586950F
:1019F00086950E9449080E94E00C089590914E023D
:101A000092FB222720F9281769F080FB92F9909326
:101A10004E0280914D0290914E020E944D0D82E047
:101A20000E94E60C089580914E0282FB882780F97F
:101A300091E089270E94FE0C089581E00E94FE0C2F
:101A4000089580E00E94FE0C08956FEF7FEF80E024
:101A500090E00E949727089580E090E00E9463271D
:101A6000853E9E4F19F40E94161A089580E008954D
:101A700082E090E00E945B27089583E090E00E945E
:101A80005B270895682F83E090E00E9479270895EE
:101A900084E090E00E9463270895BC0184E090E018
:101AA0000E9497270895AB01BC018FE090E00E944F
:101AB0008B270895AB01BC0183E190E00E948B2746
:101AC000089560E070E0CB010E945A0D089560E037
:101AD00070E0CB010E94530D0E94610D0895A8E0B3
:101AE000B0E0E5E7FDE00C94E12565EE7EEF80E0F7
:101AF00090E00E94972760E082E090E00E947927C2
:101B000081E08093C1010E94420D60E074E184E0B5
:101B100090E00E94972760E086E090E00E9479279D
:101B200060E087E090E00E94792740E050E0BA0151
:101B300088E090E00E948B2760E083E290E00E94C2
:101B4000792760E08CE090E00E94792760E08DE0EA
:101B500090E00E94792719821A821B821C821D82C2
:101B60001E821F82188648E050E067E170E0CE01D7
:101B700001960E94692740E050E0BA018FE190E0B1
:101B80000E948B2780E00E942F1A0E946E1A0E94EA
:101B9000670D2896E2E00C94FD250E946F0D0895D4
:101BA000682F8EE090E00E9479270895A6E0B0E0CB
:101BB000ECEDFDE00C94DF250E941D1E8C01809150
:101BC0001802909119028017910779F019821A82F0
:101BD0000E941D1EBC0149815A8180E090E00E9454
:101BE000910410931902009318022696E4E00C94D5
:101BF000FB250E94291E609321027093220280938C
:101C000023029093240260931D0270931E0280931E
:101C10001F02909320020895089508950E940C0ECB
:101C2000089508950E94110E089582EE90E10E9499
:101C3000DB120E940D0E0E940E0E089581E00895A1
:101C40000E941E0E08950E941E0E08950895089584
:101C50000E94260E0E94270E08950E942C0D8111CD
:101C600002C00E94CD0D0E94380D809325020E9473
:101C7000480D90934E0280934D020E94FE120E94E6
:101C80003D0D0E9410088091C0010E94280808950F
:101C90000E94141E0E947E1A0E94A2110E942D0E04
:101CA0000E946B040E94120E0895A6E0B0E0EBE5DE
:101CB000FEE00C94D8250E94200E81110AC00E94DB
:101CC000D60D0E942C170E9478042696EBE00C9407
:101CD000F4250E94B81110911A0280E00E94FE10B3
:101CE00081130EC010911B0281E00E94FE10181398
:101CF00007C010911C0282E00E94FE101817F9F232
:101D00008091250281FD0E9404110E94230EC82E9D
:101D10008AE1A82E82E0B82E00E099249394802FC7
:101D20000E94FE10182FF50191915F01891739F17A
:101D3000D82ED926F12CEE24E3948D2D8E218823E4
:101D4000B1F0CC20A1F0F9820A830E941D1E9C8371
:101D50008B839D8291E0812F8E21811101C090E0C3
:101D600049815A816B817C818D810E949104F39419
:101D7000EE0CF7E0FF12E1CFF501319710830F5F12
:101D8000033069F60E94F90D9CCF1F93CF93DF9328
:101D90000E94EF0FEC01811522E5920708F053C075
:101DA000811540E5940708F0DDC0803E9105F8F408
:101DB0008D3C910508F0AEC0883A910580F4853AD3
:101DC000910508F099C08130910521F00497813A7E
:101DD000910550F4CE01DF91CF911F910895885A5B
:101DE00091094B9708F48BC0C0E0D0E0F3CF811588
:101DF00050E49507F8F4C11580E2D80708F0CBC08D
:101E0000C83ED10538F3CE019A9581159F4160F700
:101E10008D2F0E949310182FCE0199270E94EF0F4B
:101E2000212F30E0322F2227E901CC27DF71C82B88
:101E3000D92BD0CF99270E94EF0FCC27DF70C82B6A
:101E4000D92BD06AC7CF803842E59407C8F58036D1
:101E500052E5950708F067C0C03482E5D807B0F0B6
:101E60008C2F86958695877020E2829FC001112471
:101E7000C37021E030E0A90102C0440F551FCA958C
:101E8000E2F7EA01C82BD92BDC68A4CFC03252E5B7
:101E9000D50708F041C08C2F8695869520E2829F59
:101EA000C0011124C37021E030E0A90102C0440F39
:101EB000551FCA95E2F7EA01C82BD92BDD688ACFF6
:101EC000803C52E5950760F48F71C03AD24508F026
:101ED0003FC090E0982F8827EC01C46FD06A7ACF7A
:101EE000805C9245809708F07FCFDC2FCC27CC27F1
:101EF000DF71C06FD06A6ECFA497D0646BCFC85A21
:101F0000D0E0CC0FDD1FC15ADE4F0990D881C02D23
:101F1000D46460CFD0655ECFCF71D0E0DC2FCC270A
:101F2000C16FD06A57CF86958695877020E2829FD1
:101F3000C0011124C37021E030E0A90102C0440FA8
:101F4000551FCA95E2F7EA01C82BD92BDA6842CFB0
:101F50000E949310C82FD0E0DC2FCC27CC27DF7154
:101F6000D06238CF8F710E94931065E0D695C795E7
:101F70006A95E1F7CF70D0E0DC2FCC27282F30E036
:101F800084FF05C054E0220F331F5A95E1F7C22B9E
:101F9000D32BD0691FCF8D2F8F710E949310182FD4
:101FA000CE0199270E94EF0F212F30E0322F2227F8
:101FB00022273F71282B392BE901D2CF462F672FDB
:101FC000733028F4473018F40E94B213089580E06B
:101FD00090E008950E94DE0F0E94C50E0895803E95
:101FE0009105D1F1C8F48133910509F47FC048F41B
:101FF0008932910509F46FC08A32910509F47DC0D8
:10200000089589339105E1F082389105C9F085334F
:10201000910509F45BC00895843E9105D1F148F41F
:10202000823E910531F1833E910541F181EE90E0D0
:102030000895863E9105C1F1873E9105E1F108952D
:1020400020914D022370211165C020914E0223FF83
:1020500014C089E290E0089520914D0220FD43C014
:1020600030914E0230FF09C024FF4EC080E090E066
:10207000089520914D0222FDF7CF089520914D0241
:1020800022FD45C030914E0230FD44C024FFF5CF03
:10209000EDCF20914E0221FFF0CF80914D0284FDC3
:1020A000E5CF87EE90E0089520914D0223FFE5CF24
:1020B00024FDDCCFF6CF20914D0223FD2EC03091C0
:1020C0004E0231FFE3CF84EE90E0089520914D025F
:1020D00025FFD3CFBECF20914D0225FD21C02091F9
:1020E0004E0223FFCACF89E390E0089520914D026C
:1020F00026FFC3CF8AE290E0089520914D0226FF8B
:10210000BCCF81E390E0089583EE90E0089582EEE5
:1021100090E0089580EE90E0089586EE90E00895B6
:1021200085E390E0AACF90914D0292FF10C041E06C
:10213000282F2471243009F040E031E0282F287145
:10214000283009F030E0431711F02CE0822793FF8C
:1021500010C041E0282F2471243109F040E031E023
:10216000282F2871283109F030E0431711F02CE0B6
:10217000822730914E0230FF10C051E0282F21718C
:10218000213009F050E041E0282F2871283009F073
:1021900040E0541711F029E0822731FF10C041E0E0
:1021A000282F2171213109F040E031E0282F2871DA
:1021B000283109F030E0431711F029E0822794FD1F
:1021C000877E089580E00895CF939C01FB01805E97
:1021D0009245C1E0809738F4C581C11104C0822FB7
:1021E0008F710E94A2038C2FCF91089508950E94B1
:1021F000F610089508950E94FA100895E82FF0E06F
:10220000EE5AFD4F80810895089580EA8A95F1F78E
:10221000089500C008950E9405110895F894E82FCC
:10222000E295EF70F0E041A18F7021E030E0B9015C
:1022300002C0660F771F8A95E2F7CB01962F909523
:10224000942391A392A1892B82A3789408950F934C
:102250001F93CF93DF9383E90E940E1182E90E94BE
:102260000E1181E90E940E11C5E9D1E00CE911E0DF
:1022700089918F3F11F00E940E110C171D07C1F7B5
:10228000DF91CF911F910F910895A0E0B0E0EBE4B2
:10229000F1E10C94DB25EC01D62E062F10E0C801ED
:1022A00084569E4F7C01FC0180818F3F09F445C01C
:1022B000F894E82FE295EF70F0E091A18F7021E0A3
:1022C00030E001C0220F8A95EAF7892F822B81A383
:1022D00082A12095282322A378940E940911E5E980
:1022E000F1E091E0C12C81918F3F81F0A82FA29560
:1022F000AF70A05EB0E02C9130E08F7002C03595D9
:1023000027958A95E2F72170892F211180E0C82A4C
:10231000990F81E0EC39F80731F7F70180818F3FA1
:1023200011F00E940E1161E0C11001C060E08D2D1E
:102330000E940B11C00FD11FC882CDB7DEB7E8E0F5
:102340000C94F7250E94271183E0E2E5F2E0DF011B
:10235000982F1D929A95E9F7EFE4F2E0DF011D92C4
:102360008A95E9F783E00E94F6110E94F71008951C
:10237000A3E0B0E0EEEBF1E10C94E0251A821982C3
:102380001B8260E0CE0101960E94451161E0CE0102
:1023900001960E94451162E0CE0101960E9445110E
:1023A00043E050E0BE016F5F7F4F8FE492E00E94F8
:1023B000472721E0892B81F420E043E062E572E0C9
:1023C0008FE492E00E940B12182F0E94FB10812FC5
:1023D0002396E3E00C94FC2589819A81AB8180935C
:1023E0004F0290935002A0935102E7CFCF93DF9317
:1023F00097E0899FE0011124CE010E941C26809362
:102400002B0290932C02AE0160E070E00E945427F2
:10241000DF91CF910895A0E0B0E0E1E1F2E10C940A
:10242000D7257C01162F072FD42FC22F10922602FA
:10243000D0902802DD2009F44BC00E941D1E9C0193
:102440008091290290912A02F901E81BF90B30933F
:102450002A0220932902EF3FF10509F0D0F43097CA
:1024600009F443C0CE2E1092280210922702209128
:102470002B0240912C0280E030E090E0D9130CC098
:102480008093270230932802C11133C0811131C0DB
:1024900025C0EFEFF0E0E6CFA22FB42FAD01495FEA
:1024A0005F4F2D91222341F0BD0161507109C21689
:1024B00050F0FB0110828D2D4A175B0791F7242FF6
:1024C000452F9F5FDBCF2C19FB0120833D2DF4CFDF
:1024D000211129C080912702811125C080912602F7
:1024E000CDB7DEB7ECE00C94F32580912702CC2326
:1024F00069F21092270260912B0270912C02C09118
:102500002802B09026024701E12FF02FEE24E39439
:10251000F12C0BE48E2F811B8D1760F0B0922602F8
:10252000C0932802DBCF0E941D1E90932A02809345
:102530002902DFCFD4019D914D0180819827AB0105
:1025400020E030E06701022E02C0CC0CDD1C0A94B2
:10255000E2F7A92EAC20AA2049F0DA01AC90A11034
:1025600005C00C938C25BB24B394C1E04F5F5F4F33
:102570002F5F3F4F2730310529F7695F7F4F8193E8
:10258000C9CF0E94550E08950E94B61D0E942020BA
:102590000E94150E0E943A200E94480E0E94472079
:1025A0000E944C200E94C1120E9466200E94EB1ED5
:1025B0000E94280EF5CF9093AF018093AE0108954D
:1025C0000E94250D089580E00E94FE1081700895FC
:1025D0000E94B8112FEF82E597E021508040904093
:1025E000E1F700C000000E94B8110E94E3128823A6
:1025F00021F00E94E0120E94791E08950E94E812C4
:10260000089587E0089550E0440F551F9EE0699FAC
:10261000400D511D11249AE2899F400D511D112436
:10262000CA01889608950F931F93CF93DF93873045
:10263000C8F46330B8F44730A8F40E9403138C0147
:102640000E945B27C82FD0E0DC2FCC27C801019661
:102650000E945B279E01282BC901DF91CF911F911A
:102660000F91089580E090E0F8CF0F931F93CF93E0
:10267000DF93122F032F873078F4633068F44730EC
:1026800058F40E940313EC01602F0E947927612FF8
:10269000CE0101960E947927DF91CF911F910F9172
:1026A00008951F93CF93DF93D0E0C0E011C0412F76
:1026B0006C2F8D2F0E941A039C01412F6C2F8D2FA0
:1026C0000E9435131F5F173091F7CF5FC33011F0B1
:1026D00010E0EDCFDF5FD73041F7DF91CF911F9151
:1026E0000895EF92FF920F931F93CF93DF938C0186
:1026F000EA017A01E60EF71ECE15DF0529F4CDB703
:10270000DEB7E6E00C94F925063281E0180740F4C4
:10271000C80188960E945B2789930F5F1F4FECCFFB
:1027200080E0FACFEF92FF920F931F93CF93DF9346
:102730008C01EA017A01E60EF71ECE15DF0529F4B9
:10274000CDB7DEB7E6E00C94F925063281E0180734
:1027500028F46881C80188960E94792721960F5F26
:102760001F4FEBCF873038F4633028F4473018F42C
:102770000E941313089580E090E0089580E1089589
:1027800082EB92E00895EF92FF920F931F93CF9305
:10279000DF938C01EA017A01E60EF71ECE15DF0504
:1027A00029F4CDB7DEB7E6E00C94F925023B82E0D0
:1027B000180748F4C801825B9E4F0E945B278993EB
:1027C0000F5F1F4FEBCF80E0FACFEF92FF920F9396
:1027D0001F93CF93DF938C01EA017A01E60EF71E77
:1027E000CE15DF0529F4CDB7DEB7E6E00C94F92568
:1027F000023B82E0180730F46881C801825B9E4F7B
:102800000E94792721960F5F1F4FEACFCF93DF9366
:10281000CEE4D1E060E0CE010E9479272196C11577
:1028200084E0D807B9F7DF91CF910895A8E0B0E030
:10283000ECE1F4E10C94DB25F82E2FE0281708F4E6
:102840006FC08FEF93E00E945B27811169C00EE497
:1028500011E0F11038C01A821982FE01339686E029
:10286000DF011D928A95E9F76801BFEFCB1ADB0AF9
:10287000C8010E945B2789831A82882309F450C00B
:102880008130D1F4780122E0E20EF11CC6010E94F1
:102890005B278A83882309F443C09FEF980F933006
:1028A000F8F4680183E0C80ED11CC7010E945B27C1
:1028B0008B838823A9F11C8260E0CE0101960E94DF
:1028C000C0188601D1CF011584E0180749F1C8016D
:1028D0000E945B270F5F1F4F8111F5CFFA94B9CF8C
:1028E0008430B9F402E010E0C701AFEFEA1AFA0A47
:1028F0000E945B27E1E0F0E0EC0FFD1FE00FF11F0D
:102900008083882369F08C3731F4FE01E00FF11FDA
:1029100012826701D1CF0F5F1F4F0730110521F7DA
:102920002896E8E00C94F725CF93DF93EB018631EE
:102930009C4719F50E942E0C9D819923A1F08A7A5B
:1029400091E0811101C090E090932D02882349F01D
:1029500085E30E94A61C0E94C10C80E0DF91CF910C
:10296000089589E2F6CF80912D02882321F085E336
:102970000E94AE1CF0CF89E2FBCF81E0EFCFCF9376
:10298000DF93EC01FB018581882309F4D2C09E010D
:1029900030572332310508F0B2C00E94480D9093A1
:1029A0004E0280934D02FE01E150F047E232F10504
:1029B00020F4E554F84D0C94C42580914D028160BB
:1029C00080934D0293C080914E02886080934E02A6
:1029D0008DC080914D028260F3CF80914D02846062
:1029E000EFCF80914D028860EBCF80914E028160E5
:1029F000EDCF80914E028260E9CF80914D028061DF
:102A0000DFCF80914D028062DBCF80914D028064E8
:102A1000D7CF0E94C30780914D028068D1CF8091AB
:102A20004D028C60CDCF80914E028360CFCF8091DC
:102A30004D028E7FC5CF80914E02877FC7CF809198
:102A40004D028D7FBDCF80914D028B7FB9CF80919C
:102A50004D02877FB5CF80914E028E7FB7CF809198
:102A60004E028D7FB3CF80914D028F7EA9CF809192
:102A70004D028F7DA5CF80914D028F7BA1CF0E940B
:102A8000C30780914D028F779BCF80914D02837F4A
:102A900097CF80914E028C7F99CF80914D0282FB1F
:102AA000992790F921E0922790FB82F990FB83F916
:102AB00087CF80914E02982F909591708E7F892BB1
:102AC00090FB81F983CF90914D02892F8F7B96FFE8
:102AD000806476CF0E94C30790914D02892F97FBA7
:102AE00087F980586DCF81E00E94D00D80914D0212
:102AF00090914E020E944D0D0E94C30780E0DF912D
:102B0000CF91089580E0F0CF90914D02892F8F7E74
:102B100094FF806155CF90914D02892F8E7F90FF59
:102B200081604ECF90914E02892F877F93FF8860FE
:102B30004DCF81E0E4CF282F35EB2303C0011124D2
:102B400097FF04C080589109892F089580589F4F9E
:102B5000FBCF8091340280FF0DC060910E0170E0C8
:102B6000660F771F60387105C0F561157105B9F101
:102B7000862F089581FF07C060910E0184E0689F51
:102B8000B0011124EFCF82FF04C060910E0188E0F4
:102B9000F6CF809133028823E9F090910D01609186
:102BA0000E0170E0891730F093E0660F771F9A9559
:102BB000E1F7D8CF869F9001879F300D112483E0E5
:102BC000220F331F8A95E1F7692F70E0C9010E9437
:102BD000B025C8CF68E070E0CBCF8FE7089581E0E3
:102BE00008958091340280FF0CC060910A0170E06A
:102BF00075956795759567956115710561F1862FD6
:102C0000089581FF06C060910A0170E0759567958F
:102C1000F3CF60910A0170E082FD15C0209132026D
:102C20002223B1F09091090160910A0170E0291707
:102C300050F4269FA001279F500D1124692F70E0AA
:102C4000CA010E94B02560387105B0F28FE708957F
:102C500061E070E0D4CF81E00895E3E3E80FE33171
:102C6000E0F5F0E0E352F84D0C94C4250E94A9155C
:102C700081958093380208950E94A915FACF0E9489
:102C8000A91581958093370208950E94A915FACF5E
:102C90000E94F1158093390208950E94F1158195E3
:102CA000F9CF0E94F115819580933A0208950E9410
:102CB000F115FACF815D990B21E030E001C0220FC0
:102CC0008A95EAF780913602822B80933602089526
:102CD000809134028160809334020895809134029F
:102CE0008260F9CF809134028460F5CF4091370241
:102CF0008D3C59F48091380287FF0DC01092380244
:102D0000442359F41092330208C08E3C81F4809120
:102D1000380218169CF3442381F080913902909177
:102D20003A02892B811159C01092320208958F3CCA
:102D300041F447FFF0CF1092370280913802882388
:102D4000E0CF803D19F41416B4F3E5CF9091390229
:102D5000893D29F41916FCF610923902DCCF8A3D20
:102D600019F497FFD8CFF8CF90913A028B3D29F410
:102D700097FFD1CF10923A02CECF8C3D19F419169D
:102D8000CCF3C9CF9FE2980F983090F4815D990BF6
:102D900021E030E0B90102C0660F771F8A95E2F7A3
:102DA000CB01809590913602892380933602B3CF70
:102DB0008D3D31F4809134028E7F80933402ABCF0D
:102DC0008E3D21F4809134028D7FF7CF8F3D09F045
:102DD000A2CF809134028B7FF0CF08950E941D1EF8
:102DE0002091370230913802232B222321F0809347
:102DF0003002909331022091390230913A02232B14
:102E0000222321F080932E0290932F0285E392E0FB
:102E10000E94FA1B089586E0E5E3F2E0DF011D92CF
:102E20008A95E9F71092330210923202109234021E
:102E30000895FC01828181110DC0838181110AC036
:102E40008481811107C081E09581911101C080E0EA
:102E50008170089581E0FCCFA6E0B0E0E2E3F7E105
:102E60000C94DE2586E0E5E3F2E09E012F5F3F4F04
:102E7000D90101900D928A95E1F7109237021092D4
:102E800038021092390210923A028B819C81892B70
:102E90008901882391F080913002909131020E9443
:102EA000461E9C01809133028823C9F140910F0195
:102EB00050E04217530708F43FC08D819E81892B53
:102EC000882399F080912E0290912F020E94461E35
:102ED0009C0180913202882309F467C040910B0164
:102EE00050E04217530708F46EC0B80185E392E042
:102EF0000E94C11C811105C085E392E00E94191750
:102F000081110E94EE1686E0F801A5E3B2E001907F
:102F10000D928A95E1F72696E5E00C94FA2540910A
:102F200010019AE0499FA00111244217530728F687
:102F30008F5F8093330202C08F3FD1F7FB80FF2069
:102F400059F00E94A91591E01F140CF09FEF899F82
:102F5000802D112480933702FC80FF2059F00E94BD
:102F6000A91591E01F140CF09FEF899F802D11246B
:102F70008093380280913702882309F49ECFF09025
:102F80003802FF2009F499CF0E949B15811101C0DE
:102F900081E0809337028F2D0E949B15882319F0C2
:102FA000809338028ACF81E0FBCF40910C019AE0F8
:102FB000499FA00111244217530708F096CF8F5F55
:102FC0008093320202C08F3FD1F7FD80FF2059F07D
:102FD0000E94F11591E01F140CF09FEF899F802D46
:102FE000112480933902FE80FF2059F00E94F115D0
:102FF00091E01F140CF09FEF899F802D1124809386
:103000003A0280913902882309F46FCFF0903A0296
:10301000FF2009F46ACF0E949B15811101C081E055
:10302000809339028F2D0E949B15882319F080937D
:103030003A025BCF81E0FBCFA0E0B0E0E2E2F8E152
:103040000C94DA25E82FF0E0EE52FE4FB490282FD2
:1030500026952695269530E0F901EE58FD4F04910E
:10306000877010E0082E02C0159507950A94E2F7C4
:1030700001701127F901EE59FD4FE490F12C082E53
:1030800002C0F594E7940A94E2F791E0E922FF2464
:10309000F901EE5AFD4FC491D0E002C0D595C79515
:1030A0008A95E2F7C170DD27C62ED12C01151105D6
:1030B00049F5E114F10431F086EE0E94D404C60112
:1030C000009771F5B6018B2D0E944F05C601009740
:1030D00079F5E114F104A1F50115110531F081EE46
:1030E0000E941C05C6010097C9F5CD2B31F08CE27A
:1030F0000E946705C114D104C9F5CDB7DEB7E9E078
:103100000C94F62581EE0E94D404C601009789F242
:10311000EFE9FFE03197F1F700C000000197F6CF2B
:10312000EFE9FFE03197F1F700C000000197C8CF49
:10313000EFE9FFE03197F1F700C000000197C7CF3A
:1031400086EE0E941C05C601009731F2EFE9FFE010
:103150003197F1F700C000000197F6CFEFE9FFE0EB
:103160003197F1F700C000000197BDCF8FE99FE0D4
:103170000197F1F700C0000091E0C91AD108BACF59
:10318000EF92FF921F93CF93DF93EC01162F88816C
:10319000882309F45AC0813009F053C089818130F5
:1031A00071F47E0182E0E80EF11C8A810E946705BD
:1031B000E701812F90E00097E1F52196E8CF82307A
:1031C00041F47E01E2E0EE0EF11C8A810E94D404FB
:1031D000EFCF833041F47E01F2E0EF0EF11C8A81E3
:1031E0000E941C05E5CF843011F02196E2CF2A81A0
:1031F000229680E090E06AE0AE014F5F5F4F20537F
:10320000330B2A30310550F0009799F2EFE9FFE0D7
:103210003197F1F700C000000197F6CF689FF001E9
:10322000699FF00D1124C9018E0F9F1F2981EA01AA
:10323000E3CFEFE9FFE03197F1F700C0000001971D
:10324000BACF612F0E941C18B8CFDF91CF911F9188
:10325000FF90EF9008950F931F93CF93DF93C42FA8
:10326000D22FFC0185818823C9F040933D020E9442
:103270001D1E90933C0280933B0280E28C0F8830AD
:1032800040F4C77081E001C0880FCA95EAF70E9438
:103290007005DF91CF911F910F91089510913D021C
:1032A00014133CC080913B0290913C020E94461E48
:1032B000883C910598F5C0E2CD0F1D1741F180E2E1
:1032C000810F883040F4177081E001C0880F1A9593
:1032D000EAF70E947705C83020F0802F0E9467052A
:1032E000D8CF91E08D2F877001C0990F8A95EAF7AA
:1032F000892F0E947005802F0E946705D77081E09A
:1033000001C0880FDA95EAF70E947705C2CF802FB7
:103310000E946705C83008F0BCCFF0CF80E28C0F68
:10332000883008F0B6CFC77081E001C0880FCA9519
:10333000EAF7EACF0F93FC01CB01E851FC47E730F5
:10334000F10590F5E051F84D0C94C42506E221EE0C
:1033500041EE6AE17CE70E942B1980E00F9108950D
:1033600007E225EE45EE6BE17CE7F5CF06E221EEC4
:1033700040EE68E17CE7EFCF07E225EE44EE69E13D
:103380007CE7E9CF06E221EE42EE6CE17CE7E3CF99
:1033900007E225EE46EE6DE17CE7DDCF08E221E0B5
:1033A00045EE6EE17CE7D7CFFB018581811110925C
:1033B0003D0281E0D3CFCF93DF939C01FB01273700
:1033C0008CE7380739F028373C47F1F081E0DF918E
:1033D000CF9108958581882391F00E940D1A0E9453
:1033E0003D080E94131AD82F0E94101AC82F0E945D
:1033F0000D1A4D2F6C2F0E946F0980E0E8CF0E94BC
:103400000D1A0E944908EDCF8581882319F00E948A
:10341000101AE5CF0E94101AF4CF8091130108957D
:1034200080911201089580911101089584E290E045
:103430000E945B27853289F485E290E00E945B2739
:10344000833059F486E290E00E945B2791E0893056
:1034500009F090E0892F8170089580E0FCCF8823E7
:1034600081F065E284E290E00E94792763E085E2E2
:1034700090E00E94792769E086E290E00E94792737
:1034800008956FEF84E290E00E9479276FEF85E264
:1034900090E00E9479276FEFEFCF0895A4E0B0E0AD
:1034A000E4E5FAE10C94E12587E290E00E945B27D5
:1034B000282F30E040E050E0CA01B9012496E2E054
:1034C0000C94FD250895CF93C62F0E94621A6C2F8D
:1034D00087E290E00E947927CF91089580E00E94D2
:1034E0002F1A60E070E0CB010E94631A0E94511312
:1034F0000E94061481E00E942F1A08950E944D1A1E
:103500000E944E1A0E94621A0E94161A811102C06D
:103510000E946E1A089508959C01FB0185818823FD
:1035200051F0A90157574038510530F4822F0E94BD
:10353000161480E0089581E008952FEFFC012083A8
:1035400008950E949D1A089580E00895CF92DF9219
:10355000FF920F931F93CF93DF93CDB7DEB72E97D4
:103560000FB6F894DEBF0FBECDBF8D839E83F62EBF
:103570008D819E810E94A41A811115C0AD81BE81EA
:10358000EC91E150E33140F5F0E0E950F84D0C9456
:10359000C425ED81FE8111828CE082836F2D8D81A7
:1035A0009E810E94E11E2E960FB6F894DEBF0FBEDC
:1035B000CDBFDF91CF911F910F91FF90DF90CF9002
:1035C0000895AD81BE8111968C91833099F148F4B4
:1035D000813081F08230E9F08FEFAD81BE818C9334
:1035E000DDCF8430C9F7ED81FE811282138214820F
:1035F0001582D4CF0E94291E0E94CA256F83788726
:1036000089879A87ED81FE816283738384839583A2
:10361000C5CF0E944E1A0E94CA256B877C878D8772
:103620009E87AD81BE8112966D937D938D939C9301
:103630001597B4CFED81FE81028110E06F01F3E0B8
:10364000CF0ED11C033011050CF0A8CF802F0E94A3
:10365000FE10D6018D936D010F5F1F4FF3CFED81EB
:10366000FE818181823049F0853009F0B5CFED814E
:10367000FE8182810E948B1A91CFAD81BE8112960C
:103680008D919D910D90BC91A02D89839A83AB83E0
:10369000BC83BC01CD010E94CA250E94631A7ECF63
:1036A000AD81BE8113964C91139712966C9112972F
:1036B00011968C910E941313982789279827ED81E2
:1036C000FE81958384836ACFAD81BE8114962D914E
:1036D0003C91159732272327322713964C91139745
:1036E00012966C91129711968C910E94351356CFB9
:1036F0000E94511353CF6F2D8D819E810E94A11A7C
:103700004DCF0E94BE13ED81FE81818347CF0E9481
:10371000C013982789279827AD81BE8112969C9364
:103720008E9311973BCFED81FE81638170E08181A3
:103730009281AF014C5F5F4F9827892798270E949D
:10374000C3132CCFAD81BE8113966C91139770E09B
:1037500011968D919C911297AD014C5F5F4F982708
:10376000892798270E94E51319CF0E94061416CFC7
:103770000E940113C8CFAD81BE8113966C9113973F
:1037800070E011968D919C911297AD014C5F5F4F47
:103790009827892798270E94711300CFED81FE8119
:1037A000638170E081819281AF014C5F5F4F982708
:1037B000892798270E949213F1CE90934302809319
:1037C00042020895E0914202F0914302309729F0BD
:1037D0000190F081E02D0995089580E00895E09131
:1037E0004202F0914302309721F00280F381E02DF4
:1037F00009950895DC01E0914202F091430230976F
:1038000039F082E08C930680F781E02DCD01099597
:103810000895A3E0B0E0EFE0FCE10C94E1259C0109
:10382000809140029091410282179307A1F030935A
:10383000410220934002E0914202F091430230970E
:1038400051F083E089833B832A830084F185E02D56
:10385000CE01019609952396E2E00C94FD25A3E0A4
:10386000B0E0E5E3FCE10C94E1259C0180913E028F
:1038700090913F0282179307A1F030933F0220936B
:103880003E02E0914202F0914302309751F084E011
:1038900089833B832A830084F185E02DCE01019644
:1038A00009952396E2E00C94FD2540910701509183
:1038B00008019A012E5F3F4F485F5F4F80E0F9019A
:1038C00090812F5F3F4F91118F5F42175307B9F7D8
:1038D0000895882371F02091070130910801F901C2
:1038E0003296285F3F4F9191981729F0E217F3071E
:1038F000D1F780E0089581E008959C01FC013296A3
:103900008FEF90E04191461751F08F3F19F441112C
:1039100001C0892F9F5F9630A9F78F3F09F4089562
:10392000280F311D87FD3A95F901628308959C01A6
:10393000FC013296285F3F4F8191861303C0DF015F
:1039400011971C92E217F307B9F70895682F809139
:103950000701909108010E947D1C0895682F8091B5
:103960000701909108010E94971C0895E0910701BA
:10397000F0910801329686E0DF011D928A95E9F701
:103980000895DC01FB0111969C9111978181981398
:1039900022C012968C911297882319F09281891374
:1039A0001AC013968C911397882319F09381891369
:1039B00012C015968C911597882319F0958189135B
:1039C0000AC014969C91992321F081E02481291347
:1039D00003C080E001C081E08170089508950E94D5
:1039E000EE1C0895A4E0B0E0E8EFFCE10C94E125C2
:1039F0008F5F809317018091140190911501A09120
:103A00001601B0911701BC01CD010E94EF1C249654
:103A1000E2E00C94FD25A4E0B0E0E1E1FDE10C94CE
:103A2000E12583E0809317018091140190911501A5
:103A3000A0911601B0911701BC01CD010E94EF1CAD
:103A40002496E2E00C94FD250E94F21C0895A4E067
:103A5000B0E0EDE2FDE10C94E12581E080931701F7
:103A60008091140190911501A0911601B091170158
:103A7000BC01CD010E94EF1C2496E2E00C94FD25D0
:103A80000E94271D0895A4E0B0E0E9E4FDE10C9454
:103A9000E12591E0811101C090E0909316018091A1
:103AA000140190911501A0911601B0911701BC016C
:103AB000CD010E94EF1C2496E2E00C94FD2580913C
:103AC00016010895A4E0B0E0E8E6FDE10C94E125DC
:103AD000809315018091140190911501A091160118
:103AE000B0911701BC01CD010E94EF1C2496E2E0C9
:103AF0000C94FD25809115010895A4E0B0E0E3E861
:103B0000FDE10C94E12580931401809114019091C2
:103B10001501A0911601B0911701BC01CD010E94C1
:103B2000EF1C2496E2E00C94FD2580911401089589
:103B3000089508950E94991D0895089508950E947A
:103B4000981D0895CF930E949D1D0E94B8110E9458
:103B50009E1DC0E08C2F0E94FE10811105C0CF5F1A
:103B6000C330C1F7CF91089581E0FCCF85B780685D
:103B700085BF85B7806885BF08951F921FB61F92C5
:103B800011248F939F93AF93BF938091440281112F
:103B900013C08091550290915602A0915702B091A6
:103BA00058024196A11DB11D809355029093560273
:103BB000A0935702B0935802BF91AF919F918F91FC
:103BC0001F901FBE1F90189580915D02843031F1C7
:103BD0000E943D041092440288E190E020E40FB678
:103BE000F894A895809360000FBE2093600083B77F
:103BF000817F846083BF83B7816083BF7894889519
:103C000083B78E7F83BF0FB6F894A895809160002C
:103C1000886180936000109260000FBE08950E943A
:103C2000C3070E944204089582E084BD93E095BDDD
:103C30009AEF97BD80936E0008952FB7F894809106
:103C4000550290915602A0915702B09158022FBF91
:103C50000895A4E0B0E0EFE2FEE10C94E1258FB717
:103C6000F89420915502309156024091570250919C
:103C7000580229833A834B835C838FBF69817A81A1
:103C80008B819C812496E2E00C94FD259C014FB72A
:103C9000F8948091550290915602A0915702B091EC
:103CA00058024FBF821B930B089578941F921FB642
:103CB0001F9211248F939F93AF93BF9380915502CE
:103CC00090915602A0915702B09158020196A11D01
:103CD000B11D8093550290935602A0935702B09362
:103CE0005802BF91AF919F918F911F901FBE1F905F
:103CF000189587E797E7909301088093000888E17B
:103D00009AE00FB6F894A895809360000FBE909348
:103D10006000FFCF88E19AE00FB6F894A8958093F1
:103D200060000FBE90936000FFCF0895282FCB0155
:103D3000BA0130915D023430E1F42F702093E90034
:103D40002FEF3091E80035FD07C035ED3A95F1F7DA
:103D5000000021502111F5CF2091E80025FF09C076
:103D600040E050E00E94DF208091E8008E77809351
:103D7000E8000895BC0143E050E084E00E94961EF4
:103D80000895BC0146E050E084E00E94961E08952C
:103D9000CF93DF93D82FC92F0E945F1D48E050E0DA
:103DA0006D2F7C2F81E00E94961E88E0ED2FFC2F66
:103DB000A5E4B2E001900D928A95E1F7DF91CF91F1
:103DC0000895792F603231F440E250E0682F82E0AC
:103DD0000E94961E0895A0E2B0E0E1EFFEE10C948F
:103DE000E12580915D02843081F483E08093E900D5
:103DF0008091E80082FF09C08091E80085FD09C03C
:103E00008091E8008B778093E800A096E2E00C9424
:103E1000FD2540E050E060E270E0CE0101960E9496
:103E20002E218091E8008B778093E80060E2CE013C
:103E300001960E94A61AE9CF80915C02811109C007
:103E40000E94B6220E9413238091E2008460809336
:103E5000E200089510925C0208950E94271D81E0FF
:103E60000E94431D08956091590281E0611101C0D3
:103E700080E00E940B1D089590915D0281E09430D6
:103E800009F080E0609159020E94241D089542E0EB
:103E900061EC81E00E94322242E261EC84E00E9407
:103EA000322242E261EC82E00E94322242E260EC85
:103EB00083E00E94322290915D0281E0943009F00B
:103EC00080E0609159020E94F21C089580915F0287
:103ED000893089F148F4823009F4A1C0833009F4B3
:103EE0005BC0813041F008958A3009F488C08B307E
:103EF00009F46DC0089580915E02813A09F04BC0CB
:103F00008091E800877F8093E80080916202909121
:103F10006302892B61F060E080E090E070E00E9435
:103F20007D218091E8008B778093E800089568E018
:103F300085E492E0F3CF80915E02813261F5809159
:103F40006202909163028D7F892B29F58091E800B0
:103F5000877F8093E8008091E80082FF18C09091ED
:103F6000F3008091F200029731F48091F1008130EA
:103F700011F0863021F48091F1000E94621D809141
:103F8000E8008B778093E8000E94662204C080914D
:103F90005D028111E0CF089580915E02813AD9F7E8
:103FA0008091620290916302892BA9F78091E800C9
:103FB000877F8093E8008091E80080FFFCCF0E941B
:103FC0005F1D8093F1008091E8008E77DBCF8091B8
:103FD0005E02813201F78091620290916302892B27
:103FE000D1F68091E800877F8093E8000E946622E6
:103FF000809160020E94431D0E94C3070895809132
:104000005E02813241F68091E800877F8093E8006C
:104010000E946622809161020E947D1D0895809118
:104020005E02813A09F0B7CF8091E800877F8093E4
:10403000E8008091E80080FFFCCF0E94951DC1CF71
:1040400084B7877F84BF0FB6F894A89580916000ED
:10405000886180936000109260000FBE80E890E05D
:104060000FB6F89480936100909361000FBE0E9498
:10407000401D08950E94B6220E941323E2EEF0E054
:1040800080818460808378940E949625089588E1D9
:1040900091E00E94DD1B089580915D02853031F42E
:1040A00080915D02853019F00E940F1E08950E94D4
:1040B000E41D0E94A21D882399F380915B0288234E
:1040C00079F30E94C9200E94C307EACF08959A019C
:1040D00040916402509165020E946F200895AC01E6
:1040E000CB01D901252F33272330310521F168F485
:1040F0002130310509F443C02230310509F444C0B0
:1041000080E090E020E030E024C02132310551F120
:1041100022323105A9F78330910590F7FC01EE0FAB
:10412000FF1FEE55FE4F2081318181569E4FFC01CD
:10413000808190E00EC0CA019927413069F0823039
:10414000910569F0ECEAF2E0892BD1F6849190E0D8
:104150009F012D933C930895E2E9F2E0F7CFE2E866
:10416000F2E0F4CF8330910558F6FC01EE0FFF1F0B
:10417000E855FE4F2081318189E090E0EACF82E16D
:1041800090E02BE033E0E5CF8BE590E020EB32E0F0
:10419000E0CF80E189BD82E189BD09B400FEFDCF99
:1041A0008091D8008F7D8093D8008091E00082605C
:1041B0008093E0008091E00081FDFCCF0895AF92F4
:1041C000BF92CF92DF92FF920F931F93CF93DF9313
:1041D0006C01EB018A010E948522F82E811123C017
:1041E0000115110539F0F80180819181C81BD90BA7
:1041F000C80ED91EA12CB12C2097A9F08091E800FF
:1042000085FD22C08091E8008E778093E80001153B
:104210001105A1F0F801808191818A0D9B1D918388
:10422000808385E0F82E8F2DDF91CF911F910F9124
:10423000FF90DF90CF90BF90AF9008950E948522AD
:104240008823E1F2F82EEFCFF60181916F01809380
:10425000F1002197FFEFAF1ABF0ACECFAF92BF9206
:10426000CF92DF92FF920F931F93CF93DF936C0156
:10427000EB018A010E948522F82E811123C00115CD
:10428000110539F0F80180819181C81BD90BC80E46
:10429000D91EA12CB12C2097A9F08091E80085FDB2
:1042A00022C08091E8008B778093E800011511050A
:1042B000A1F0F801808191818A0D9B1D91838083FB
:1042C00085E0F82E8F2DDF91CF911F910F91FF90F8
:1042D000DF90CF90BF90AF9008950E9485228823F1
:1042E000E1F2F82EEFCF8091F100F60181936F019A
:1042F0002197FFEFAF1ABF0ACECFFC019B0180913F
:104300006402909165028617970718F0672B61F099
:10431000C90140E0009771F441110CC08091E800A0
:1043200082FF35C080E008958091E8008E77809309
:10433000E800EECF20915D022223A9F12530A9F1FA
:104340002091E80023FD2DC02091E80022FDE6CF5A
:104350002091E80020FFDECF3091F3002091F200A1
:10436000009719F02830310558F041E02830310528
:1043700009F040E02091E8002E772093E800CACFB2
:1043800041914093F10001972F5F3F4FE9CF80911A
:104390005D02882341F0853041F08091E80083FF81
:1043A000BDCF81E0089582E0089583E00895FC0187
:1043B0009B0180916402909165028617970718F01F
:1043C000672B61F0C90140E0009771F441110CC006
:1043D0008091E80082FF36C080E008958091E80077
:1043E0008E778093E800EECF20915D022223B1F119
:1043F0002530B1F12091E80023FD2EC02091E80086
:1044000022FDE6CF2091E80020FFDECF3091F300BF
:104410002091F200009719F02830310558F041E062
:104420002830310509F040E02091E8002E772093F4
:10443000E800CACF44914093F100319601972F5F75
:104440003F4FE8CF80915D02882341F0853041F0F5
:104450008091E80083FFBCCF81E0089582E0089559
:1044600083E00895982F973028F08F708093E900AB
:1044700081E008959093E900242F762F50E098175B
:1044800031F07091EC002091ED005091F00021FD91
:1044900002C09F5FE8CF3091EB003E7F3093EB008E
:1044A0003091ED003D7F3093ED003091EB003160B5
:1044B0003093EB007093EC002093ED005093F000EC
:1044C0002091EE0027FDE5CF80E0089580915E0207
:1044D00087FF13C08091E80082FF06C08091E8004A
:1044E0008B778093E80004C080915D028111F2CF48
:1044F000089580915D028823D9F38091E80080FFC0
:10450000F8CF8091E8008E77ECCF2091E4003091D5
:10451000E50095E6A9018091EC008170882331F0D7
:104520008091E80080FF06C080E008952091E800B7
:1045300022FD1BC080915D02882391F0853091F0AF
:104540008091EB0085FD10C02091E4003091E500E2
:104550004217530701F391509111DCCF84E0089585
:1045600082E0089583E0089581E008950E94252364
:104570000E942D23E0EEF0E0808181608083E8EDF1
:10458000F0E080818F77808319BCA7EDB0E08C913B
:104590008E7F8C9380818F7E808310925C02089541
:1045A0000F931F93CF93DF930E9425230E942D2307
:1045B000C8EDD0E088818F77888388818068888380
:1045C00088818F7D888319BC10925D0210925902F8
:1045D00010925B0210925A0200EE10E0F801808106
:1045E0008B7F808388818160888342E060E080E007
:1045F0000E943222E1EEF0E080818E7F8083E2EE45
:10460000F0E0808181608083808188608083F80110
:1046100080818E7F8083888180618883DF91CF91C4
:104620001F910F910895E8EDF0E080818F7E8083E7
:10463000E7EDF0E080818160808384E082BF81E0EB
:1046400080935C020E94D0220895E8EDF0E0808122
:104650008E7F80831092E20008951092DA0010920B
:10466000E10008951F920F920FB60F9211242F931D
:104670003F934F935F936F937F938F939F93AF93EA
:10468000BF93EF93FF938091E10082FF0BC0809175
:10469000E20082FF07C08091E1008B7F8093E10000
:1046A0000E9495258091DA0080FF19C08091D80082
:1046B00080FF15C08091DA008E7F8093DA008091B0
:1046C000D90080FF94C080E189BD82E189BD09B431
:1046D00000FEFDCF81E080935D020E941C1F80914F
:1046E000E10080FF19C08091E20080FF15C0809139
:1046F000E2008E7F8093E2008091E20080618093EF
:10470000E2008091D80080628093D80019BC85E0D7
:1047100080935D020E94331F8091E10084FF29C0D5
:104720008091E20084FF25C080E189BD82E189BDDE
:1047300009B400FEFDCF8091D8008F7D8093D80012
:104740008091E1008F7E8093E1008091E2008F7E76
:104750008093E2008091E20081608093E20080918A
:104760005902882309F449C084E080935D020E94C5
:104770003C1F8091E10083FF29C08091E20083FF0C
:1047800025C08091E100877F8093E10082E08093E3
:104790005D02109259028091E1008E7F8093E100CA
:1047A0008091E2008E7F8093E2008091E200806140
:1047B0008093E20042E060E080E00E94322280913B
:1047C000F00088608093F0000E942D1FFF91EF9110
:1047D000BF91AF919F918F917F916F915F914F9119
:1047E0003F912F910F900FBE0F901F90189519BCFD
:1047F00010925D020E942A1F72CF8091E30087FF12
:1048000002C083E0B2CF81E0B0CF1F920F920FB60B
:104810000F921124FF920F931F932F933F934F9367
:104820005F936F937F938F939F93AF93BF93CF9338
:10483000DF93EF93FF9309EE10E0F8018081C091C0
:10484000EC00C795CC27C7958F70FC2EF82A1082F4
:10485000C0EFD0E08881877F888378940E944E24BF
:10486000F8011082888188608883CF2DCF70C08343
:10487000FF91EF91DF91CF91BF91AF919F918F9178
:104880007F916F915F914F913F912F911F910F9168
:10489000FF900F900FBE0F901F901895AAE2B0E006
:1048A000E4E5F4E20C94E0258EE592E0FC0101964B
:1048B0002091F100208322E086369207B9F70E940A
:1048C000661F8091E80083FF38C080915E0290915E
:1048D0005F029A3090F5E92FF0E0E65FF74D0C9417
:1048E000C425803889F0823841F5809162028F704A
:1048F000873018F58093E9008091EB0085FB8827CD
:1049000080F91092E90006C080915A0290915B02F2
:10491000911182609091E800977F9093E8008093D6
:10492000F1001092F1008091E8008E7723C0811190
:1049300016C080916002813011F18091E80083FF00
:104940000AC08091E800877F8093E8008091EB00A7
:1049500080628093EB00AA96E3E00C94FC25823001
:1049600061F780916002882389F01092E9008091BC
:10497000E800877F8093E8000E946622DECF81E016
:10498000933009F080E080935B02EFCF8091620268
:104990008F702FEF280F263080F68093E90020914A
:1049A000EB0020FFE2CF933031F48091EB00806286
:1049B0008093EB00DACF9091EB0090619093EB0045
:1049C00021E030E0A90102C0440F551F8A95E2F7AB
:1049D0004093EA001092EA008091EB008860E8CFF3
:1049E0008111ABCF109160021F778091E300807836
:1049F000812B8093E3008091E800877F8093E8001B
:104A00000E9466228091E80080FFFCCF8091E30045
:104A100080688093E30083E0111101C082E08093FD
:104A20005D028BCF8058823008F087CF8091600282
:104A3000909161028C3D53E0950799F583E08A835C
:104A40008AE289834FB7F894DE01139620E03EE0B6
:104A500051E2E32FF0E050935700849120FF03C010
:104A600082958F703F5F8F708A30C8F0895C90E0CC
:104A70008D939D932F5F243161F74FBF8091E800A4
:104A8000877F8093E8006AE270E0CE0101960E9481
:104A90007D218091E8008B778093E8004ECF805D88
:104AA000E6CF6091620270916302AE014F5F5F4F8B
:104AB0000E946720BC01892B09F43FCF8091E80058
:104AC000877F8093E80089819A810E94D721E1CF76
:104AD000803809F032CF8091E800877F8093E8002A
:104AE000809159028093F1001ECF811126CF9091C1
:104AF0006002923008F021CF8091E800877F809398
:104B0000E800909359020E946622809159028823FE
:104B100031F084E080935D020E94471F0ECF8091A8
:104B2000E30087FDF6CF81E0F5CF0895CF93809124
:104B30005D02882399F08091E900C091EC00C7954F
:104B4000CC27C7958F70C82B1092E9008091E800A0
:104B500083FD0E944E24CF70C093E900CF91089549
:104B600097FB072E16F4009407D077FD09D00E941A
:104B7000082607FC05D03EF4909581959F4F089537
:104B8000709561957F4F0895EE0FFF1F0590F4918A
:104B9000E02D0994692796276927782787277827A2
:104BA00008952F923F924F925F926F927F928F92D1
:104BB0009F92AF92BF92CF92DF92EF92FF920F93AC
:104BC0001F93CF93DF93CDB7DEB7CA1BDB0B0FB6B6
:104BD000F894DEBF0FBECDBF09942A883988488873
:104BE0005F846E847D848C849B84AA84B984C88409
:104BF000DF80EE80FD800C811B81AA81B981CE0F00
:104C0000D11D0FB6F894DEBF0FBECDBFED010895E4
:104C1000AA1BBB1B51E107C0AA1FBB1FA617B707E2
:104C200010F0A61BB70B881F991F5A95A9F78095FE
:104C30009095BC01CD0108950F931F93CF93DF93FF
:104C40008230910510F482E090E0E0916802F091EA
:104C5000690230E020E0B0E0A0E0309799F421153F
:104C6000310509F447C0281B390B24303105C0F544
:104C70008A819B816115710571F1FB0193838283A8
:104C8000FE0111C0408151810281138148175907EB
:104C9000F8F04817590799F4109761F012960C93A1
:104CA000129713961C933296CF01DF91CF911F91EB
:104CB0000F9108950093680210936902F4CF2115B3
:104CC000310519F04217530718F49A01BD01EF019D
:104CD000DF01F801C2CF9093690280936802D0CFC0
:104CE000FE01E20FF31F8193919322503109398322
:104CF0002883DACF2091660230916702232B41F49A
:104D000020910201309103013093670220936602E3
:104D100020910001309101012115310541F42DB799
:104D20003EB74091040150910501241B350B409181
:104D30006602509167024217530708F0B5CF241B53
:104D4000350B2817390708F4AFCFBC016E5F7F4FD2
:104D50002617370708F4A8CF640F751F70936702F2
:104D600060936602FA01819391939ECFCF93DF9374
:104D70000097E9F0FC01329713821282C091680219
:104D8000D0916902DE0130E020E02097A1F420817B
:104D90003181820F931F209166023091670228179C
:104DA000390709F067C0F0936702E0936602DF916C
:104DB000CF910895DA01AE17BF0708F040C01296F0
:104DC0004D915C9113979D014115510599F7D901BA
:104DD0001396FC93EE9312974D915D91A40FB51F1E
:104DE000EA17FB0779F4808191810296840F951F61
:104DF000D90111969C938E938281938113969C93F3
:104E00008E931297B0E0A0E08A819B810097B9F55C
:104E1000FE0181919191E80FF91F809166029091B6
:104E200067028E179F0719F6109761F510926902B5
:104E300010926802D0936702C0936602B8CFB38322
:104E4000A28340815181840F951FA817B90771F47F
:104E50004E5F5F4F8D919C911197480F591F518361
:104E6000408312968D919C91938382832115310505
:104E700009F0ADCFF0936902E093680298CFDE01AC
:104E8000EC01C2CF13961C921E921297D3CFFB0156
:104E9000DC0104C08D910190801921F441505040F3
:104EA000C8F7881B990B0895DC0101C06D93415030
:104EB0005040E0F70895F999FECF92BD81BDF89A70
:104EC000992780B50895A8E1B0E042E050E00C9445
:104ED0009F27DC01A40FB51F4150504048F0CB0183
:104EE000840F951F2E910E947A2741505040D0F791
:104EF0000895262FF999FECF92BD81BDF89A0197AA
:104F000000B4021639F01FBA20BD0FB6F894FA9A11
:104F1000F99A0FBE08950396272F0E947A270E94C0
:104F20007927252F0E947A27242F0C947A2701961F
:104F3000272F0E947A270C947927DC01CB01FC01F2
:104F4000F999FECF06C0F2BDE1BDF89A319600B4E2
:104F50000D9241505040B8F70895F894FFCFBC052A
:104F6000BC050306030668068506EB05EB058A0605
:104F7000F7060807080717158B151F15E914ED1418
:104F80002315F11427153315FD1484150115371554
:104F900005153B15631509153F156A150F154515C0
:104FA0004D15F5142B15F9142F1513154915591511
:104FB00073158215E3141B15921536163C163F1611
:104FC00045165A165A165A165A165A165A165A1676
:104FD0005A1648164D165116571668166E16721642
:104FE000B619BC19A619B019C219C819CE19C91A0F
:104FF000E11A2F1B501B641B781B7B1B7B1B7B1B2D
:10500000EC1AEC1A811B871B931BA21BB51BB81B48
:10501000BB1BCE1B712497249D2497249D24F02430
:0850200012259D246825752569
:1050280000006A022000010E02280850011E0A141E
:1050380001030201000001007A1DC81E951EC11E51
:10504800BA1EF4F5F6F7313332E200E900EA00B5AA
:1050580000B600B700CD008301CC008A019201940C
:10506800012102230224022502260227022A02B372
:1050780000B4006F0070009F01CB019F02A002E204
:1050880000E900EA00B500B600B700CD008301CC06
:10509800008A01920194012102230224022502269A
:1050A8000227022A02B300B4006F0070009F01CBF0
:1050B800019F02A00290946697C63435939291445A
:0E50C800227BBA031D033F03C202DB02FB0280
:00000001FF
